{
  "contractName": "Ultimatum",
  "abi": [
    {
      "constant": true,
      "inputs": [
        {
          "name": "",
          "type": "bytes32"
        }
      ],
      "name": "connected",
      "outputs": [
        {
          "name": "",
          "type": "bool"
        }
      ],
      "payable": false,
      "stateMutability": "view",
      "type": "function",
      "signature": "0x1754a407"
    },
    {
      "constant": true,
      "inputs": [
        {
          "name": "",
          "type": "bytes32"
        }
      ],
      "name": "requested",
      "outputs": [
        {
          "name": "",
          "type": "bool"
        }
      ],
      "payable": false,
      "stateMutability": "view",
      "type": "function",
      "signature": "0x314a6a4e"
    },
    {
      "constant": true,
      "inputs": [],
      "name": "moveTimeline",
      "outputs": [
        {
          "name": "",
          "type": "uint256"
        }
      ],
      "payable": false,
      "stateMutability": "view",
      "type": "function",
      "signature": "0x5bab4e85"
    },
    {
      "constant": true,
      "inputs": [],
      "name": "wager",
      "outputs": [
        {
          "name": "",
          "type": "uint256"
        }
      ],
      "payable": false,
      "stateMutability": "view",
      "type": "function",
      "signature": "0x667d5d22"
    },
    {
      "constant": true,
      "inputs": [],
      "name": "owner",
      "outputs": [
        {
          "name": "",
          "type": "address"
        }
      ],
      "payable": false,
      "stateMutability": "view",
      "type": "function",
      "signature": "0x8da5cb5b"
    },
    {
      "constant": true,
      "inputs": [
        {
          "name": "",
          "type": "bytes32"
        }
      ],
      "name": "gameState",
      "outputs": [
        {
          "name": "",
          "type": "uint8"
        }
      ],
      "payable": false,
      "stateMutability": "view",
      "type": "function",
      "signature": "0x990730f7"
    },
    {
      "constant": true,
      "inputs": [
        {
          "name": "",
          "type": "bytes32"
        }
      ],
      "name": "offer",
      "outputs": [
        {
          "name": "",
          "type": "uint256"
        }
      ],
      "payable": false,
      "stateMutability": "view",
      "type": "function",
      "signature": "0xdec4b4b8"
    },
    {
      "constant": true,
      "inputs": [
        {
          "name": "",
          "type": "address"
        }
      ],
      "name": "owed",
      "outputs": [
        {
          "name": "",
          "type": "uint256"
        }
      ],
      "payable": false,
      "stateMutability": "view",
      "type": "function",
      "signature": "0xdf18e047"
    },
    {
      "constant": true,
      "inputs": [
        {
          "name": "",
          "type": "bytes32"
        }
      ],
      "name": "deadline",
      "outputs": [
        {
          "name": "",
          "type": "uint256"
        }
      ],
      "payable": false,
      "stateMutability": "view",
      "type": "function",
      "signature": "0xee34cf1d"
    },
    {
      "inputs": [],
      "payable": false,
      "stateMutability": "nonpayable",
      "type": "constructor",
      "signature": "constructor"
    },
    {
      "anonymous": false,
      "inputs": [
        {
          "indexed": true,
          "name": "_sender",
          "type": "address"
        }
      ],
      "name": "LogWantingToPlay",
      "type": "event",
      "signature": "0xad11fbcf6d5af85f6c1b1285fa52da2a8f6a306d041110a4703fa6083771e638"
    },
    {
      "anonymous": false,
      "inputs": [
        {
          "indexed": true,
          "name": "pairHash",
          "type": "bytes32"
        },
        {
          "indexed": true,
          "name": "initiator",
          "type": "address"
        },
        {
          "indexed": true,
          "name": "acceptor",
          "type": "address"
        },
        {
          "indexed": false,
          "name": "firstOffer",
          "type": "uint256"
        }
      ],
      "name": "LogNewGame",
      "type": "event",
      "signature": "0x26beb95e363e2dece8ee3e1a9592aff3563f5f4c4a1f2f300451b1b53096dec8"
    },
    {
      "anonymous": false,
      "inputs": [
        {
          "indexed": true,
          "name": "id",
          "type": "bytes32"
        },
        {
          "indexed": false,
          "name": "player",
          "type": "address"
        },
        {
          "indexed": false,
          "name": "returnOffer",
          "type": "uint256"
        },
        {
          "indexed": false,
          "name": "accepted",
          "type": "bool"
        },
        {
          "indexed": false,
          "name": "amountAccepted",
          "type": "uint256"
        }
      ],
      "name": "LogOfferReturned",
      "type": "event",
      "signature": "0x11a779f5d56c34b68c64c3da51d1978d11208eb72f354e5e46400d78807eff3f"
    },
    {
      "anonymous": false,
      "inputs": [
        {
          "indexed": true,
          "name": "id",
          "type": "bytes32"
        },
        {
          "indexed": false,
          "name": "player",
          "type": "address"
        },
        {
          "indexed": false,
          "name": "accepted",
          "type": "bool"
        },
        {
          "indexed": false,
          "name": "amountAccepted",
          "type": "uint256"
        }
      ],
      "name": "LogGameFinished",
      "type": "event",
      "signature": "0x49a200d3e2bfb0997426c30054b75c170a66207f8a1acce75890eaa7cb8d9f98"
    },
    {
      "anonymous": false,
      "inputs": [
        {
          "indexed": true,
          "name": "_to",
          "type": "address"
        },
        {
          "indexed": true,
          "name": "_initiator",
          "type": "address"
        }
      ],
      "name": "LogGameRequest",
      "type": "event",
      "signature": "0x78bb2daef4aa0584da5752c6b33ef9cd64ca2b17410962aabdbc1175860e7b07"
    },
    {
      "constant": false,
      "inputs": [],
      "name": "broadcastPlayer",
      "outputs": [],
      "payable": false,
      "stateMutability": "nonpayable",
      "type": "function",
      "signature": "0x3d334344"
    },
    {
      "constant": false,
      "inputs": [
        {
          "name": "_to",
          "type": "address"
        }
      ],
      "name": "requestMatch",
      "outputs": [],
      "payable": true,
      "stateMutability": "payable",
      "type": "function",
      "signature": "0x7cd264f8"
    },
    {
      "constant": false,
      "inputs": [
        {
          "name": "_from",
          "type": "address"
        },
        {
          "name": "_offer",
          "type": "uint256"
        }
      ],
      "name": "firstOfferOffChain",
      "outputs": [],
      "payable": true,
      "stateMutability": "payable",
      "type": "function",
      "signature": "0xc6565905"
    },
    {
      "constant": false,
      "inputs": [
        {
          "name": "_from",
          "type": "address"
        },
        {
          "name": "_offer",
          "type": "uint256"
        }
      ],
      "name": "firstOffer",
      "outputs": [],
      "payable": true,
      "stateMutability": "payable",
      "type": "function",
      "signature": "0x0fe9e190"
    },
    {
      "constant": false,
      "inputs": [
        {
          "name": "_to",
          "type": "address"
        },
        {
          "name": "_responseOffer",
          "type": "uint256"
        },
        {
          "name": "_accept",
          "type": "bool"
        }
      ],
      "name": "secondOffer",
      "outputs": [],
      "payable": false,
      "stateMutability": "nonpayable",
      "type": "function",
      "signature": "0xd4ef4a0f"
    },
    {
      "constant": false,
      "inputs": [],
      "name": "withdraw",
      "outputs": [],
      "payable": false,
      "stateMutability": "nonpayable",
      "type": "function",
      "signature": "0x3ccfd60b"
    },
    {
      "constant": false,
      "inputs": [
        {
          "name": "_otherPlayer",
          "type": "address"
        }
      ],
      "name": "refundMatch",
      "outputs": [
        {
          "name": "",
          "type": "bool"
        }
      ],
      "payable": false,
      "stateMutability": "nonpayable",
      "type": "function",
      "signature": "0x417f3520"
    },
    {
      "constant": false,
      "inputs": [
        {
          "name": "_to",
          "type": "address"
        },
        {
          "name": "_accept",
          "type": "bool"
        }
      ],
      "name": "finishGame",
      "outputs": [],
      "payable": false,
      "stateMutability": "nonpayable",
      "type": "function",
      "signature": "0x50c3f37e"
    },
    {
      "constant": true,
      "inputs": [
        {
          "name": "_a",
          "type": "address"
        },
        {
          "name": "_b",
          "type": "address"
        }
      ],
      "name": "getPairHash",
      "outputs": [
        {
          "name": "",
          "type": "bytes32"
        }
      ],
      "payable": false,
      "stateMutability": "pure",
      "type": "function",
      "signature": "0xd7b7961c"
    },
    {
      "constant": true,
      "inputs": [
        {
          "name": "_pairHash",
          "type": "bytes32"
        },
        {
          "name": "_user",
          "type": "address"
        }
      ],
      "name": "getVariableHashFor",
      "outputs": [
        {
          "name": "",
          "type": "bytes32"
        }
      ],
      "payable": false,
      "stateMutability": "pure",
      "type": "function",
      "signature": "0xb2639774"
    }
  ],
  "bytecode": "0x608060405261ebf060075567016345785d8a000060085534801561002257600080fd5b50336000806101000a81548173ffffffffffffffffffffffffffffffffffffffff021916908373ffffffffffffffffffffffffffffffffffffffff160217905550611f2a806100726000396000f3fe608060405260043610610131576000357c0100000000000000000000000000000000000000000000000000000000900480637cd264f8116100bd578063d4ef4a0f11610081578063d4ef4a0f14610529578063d7b7961c14610590578063dec4b4b814610615578063df18e04714610664578063ee34cf1d146106c957610131565b80637cd264f8146103745780638da5cb5b146103b8578063990730f71461040f578063b26397741461046c578063c6565905146104db57610131565b80633d334344116101045780633d33434414610241578063417f35201461025857806350c3f37e146102c15780635bab4e851461031e578063667d5d221461034957610131565b80630fe9e190146101365780631754a40714610184578063314a6a4e146101d75780633ccfd60b1461022a575b600080fd5b6101826004803603604081101561014c57600080fd5b81019080803573ffffffffffffffffffffffffffffffffffffffff16906020019092919080359060200190929190505050610718565b005b34801561019057600080fd5b506101bd600480360360208110156101a757600080fd5b81019080803590602001909291905050506109f3565b604051808215151515815260200191505060405180910390f35b3480156101e357600080fd5b50610210600480360360208110156101fa57600080fd5b8101908080359060200190929190505050610a13565b604051808215151515815260200191505060405180910390f35b34801561023657600080fd5b5061023f610a33565b005b34801561024d57600080fd5b50610256610b7c565b005b34801561026457600080fd5b506102a76004803603602081101561027b57600080fd5b81019080803573ffffffffffffffffffffffffffffffffffffffff169060200190929190505050610bc1565b604051808215151515815260200191505060405180910390f35b3480156102cd57600080fd5b5061031c600480360360408110156102e457600080fd5b81019080803573ffffffffffffffffffffffffffffffffffffffff169060200190929190803515159060200190929190505050610dab565b005b34801561032a57600080fd5b506103336111ae565b6040518082815260200191505060405180910390f35b34801561035557600080fd5b5061035e6111b4565b6040518082815260200191505060405180910390f35b6103b66004803603602081101561038a57600080fd5b81019080803573ffffffffffffffffffffffffffffffffffffffff1690602001909291905050506111ba565b005b3480156103c457600080fd5b506103cd61138f565b604051808273ffffffffffffffffffffffffffffffffffffffff1673ffffffffffffffffffffffffffffffffffffffff16815260200191505060405180910390f35b34801561041b57600080fd5b506104486004803603602081101561043257600080fd5b81019080803590602001909291905050506113b4565b6040518082600281111561045857fe5b60ff16815260200191505060405180910390f35b34801561047857600080fd5b506104c56004803603604081101561048f57600080fd5b8101908080359060200190929190803573ffffffffffffffffffffffffffffffffffffffff1690602001909291905050506113d4565b6040518082815260200191505060405180910390f35b610527600480360360408110156104f157600080fd5b81019080803573ffffffffffffffffffffffffffffffffffffffff16906020019092919080359060200190929190505050611448565b005b34801561053557600080fd5b5061058e6004803603606081101561054c57600080fd5b81019080803573ffffffffffffffffffffffffffffffffffffffff16906020019092919080359060200190929190803515159060200190929190505050611722565b005b34801561059c57600080fd5b506105ff600480360360408110156105b357600080fd5b81019080803573ffffffffffffffffffffffffffffffffffffffff169060200190929190803573ffffffffffffffffffffffffffffffffffffffff169060200190929190505050611be4565b6040518082815260200191505060405180910390f35b34801561062157600080fd5b5061064e6004803603602081101561063857600080fd5b8101908080359060200190929190505050611d71565b6040518082815260200191505060405180910390f35b34801561067057600080fd5b506106b36004803603602081101561068757600080fd5b81019080803573ffffffffffffffffffffffffffffffffffffffff169060200190929190505050611d89565b6040518082815260200191505060405180910390f35b3480156106d557600080fd5b50610702600480360360208110156106ec57600080fd5b8101908080359060200190929190505050611da1565b6040518082815260200191505060405180910390f35b6008543414151561072857600080fd5b60008111801561073a57506008548111155b151561074557600080fd5b60006107513384611be4565b9050600160008285604051602001808381526020018273ffffffffffffffffffffffffffffffffffffffff1673ffffffffffffffffffffffffffffffffffffffff166c010000000000000000000000000281526014019250505060405160208183030381529060405280519060200120815260200190815260200160002060009054906101000a900460ff1615156107e857600080fd5b600160008285604051602001808381526020018273ffffffffffffffffffffffffffffffffffffffff1673ffffffffffffffffffffffffffffffffffffffff166c010000000000000000000000000281526014019250505060405160208183030381529060405280519060200120815260200190815260200160002060006101000a81549060ff021916905560016002600083815260200190815260200160002060006101000a81548160ff0219169083151502179055506108b542600754611db990919063ffffffff16565b600460008381526020019081526020016000208190555060008133604051602001808381526020018273ffffffffffffffffffffffffffffffffffffffff1673ffffffffffffffffffffffffffffffffffffffff166c010000000000000000000000000281526014019250505060405160208183030381529060405280519060200120905082600360008381526020019081526020016000208190555060016005600084815260200190815260200160002060006101000a81548160ff0219169083600281111561098257fe5b02179055503373ffffffffffffffffffffffffffffffffffffffff168473ffffffffffffffffffffffffffffffffffffffff16837f26beb95e363e2dece8ee3e1a9592aff3563f5f4c4a1f2f300451b1b53096dec8866040518082815260200191505060405180910390a450505050565b60026020528060005260406000206000915054906101000a900460ff1681565b60016020528060005260406000206000915054906101000a900460ff1681565b6000600660003373ffffffffffffffffffffffffffffffffffffffff1673ffffffffffffffffffffffffffffffffffffffff168152602001908152602001600020549050600081111515610aef576040517f08c379a00000000000000000000000000000000000000000000000000000000081526004018080602001828103825260068152602001807f30204f574544000000000000000000000000000000000000000000000000000081525060200191505060405180910390fd5b600660003373ffffffffffffffffffffffffffffffffffffffff1673ffffffffffffffffffffffffffffffffffffffff168152602001908152602001600020600090553373ffffffffffffffffffffffffffffffffffffffff166108fc829081150290604051600060405180830381858888f19350505050158015610b78573d6000803e3d6000fd5b5050565b3373ffffffffffffffffffffffffffffffffffffffff167fad11fbcf6d5af85f6c1b1285fa52da2a8f6a306d041110a4703fa6083771e63860405160405180910390a2565b600080610bce3384611be4565b90506000610bdc82856113d4565b90506000610bea83336113d4565b90506001600083815260200190815260200160002060009054906101000a900460ff1615610c9c576002600084815260200190815260200160002060009054906101000a900460ff16151515610c3f57600080fd5b426004600085815260200190815260200160002054101515610c6057600080fd5b6001600083815260200190815260200160002060006101000a81549060ff0219169055610c8f33600854611dda565b5060019350505050610da6565b60016002811115610ca957fe5b6005600085815260200190815260200160002060009054906101000a900460ff166002811115610cd557fe5b1480610d165750600280811115610ce857fe5b6005600085815260200190815260200160002060009054906101000a900460ff166002811115610d1457fe5b145b15610d9e57426004600085815260200190815260200160002054101515610d3c57600080fd5b600060036000848152602001908152602001600020541415610d7b57610d6433600854611dda565b50610d6f8382611e7b565b60019350505050610da6565b610d8785600854611dda565b50610d928383611e7b565b60019350505050610da6565b600093505050505b919050565b6000610db73384611be4565b9050600280811115610dc557fe5b6005600083815260200190815260200160002060009054906101000a900460ff166002811115610df157fe5b141515610dfd57600080fd5b60008184604051602001808381526020018273ffffffffffffffffffffffffffffffffffffffff1673ffffffffffffffffffffffffffffffffffffffff166c01000000000000000000000000028152601401925050506040516020818303038152906040528051906020012090506002600083815260200190815260200160002060009054906101000a900460ff161515610e9757600080fd5b6002600083815260200190815260200160002060006101000a81549060ff021916905560006003600083815260200190815260200160002054905060036000838152602001908152602001600020600090556005600084815260200190815260200160002060006101000a81549060ff0219169055831561105557610f6481600660003373ffffffffffffffffffffffffffffffffffffffff1673ffffffffffffffffffffffffffffffffffffffff16815260200190815260200160002054611db990919063ffffffff16565b600660003373ffffffffffffffffffffffffffffffffffffffff1673ffffffffffffffffffffffffffffffffffffffff1681526020019081526020016000208190555061100d610fbf82600854611edc90919063ffffffff16565b600660008873ffffffffffffffffffffffffffffffffffffffff1673ffffffffffffffffffffffffffffffffffffffff16815260200190815260200160002054611db990919063ffffffff16565b600660008773ffffffffffffffffffffffffffffffffffffffff1673ffffffffffffffffffffffffffffffffffffffff1681526020019081526020016000208190555061112f565b6110ca600854600660008060009054906101000a900473ffffffffffffffffffffffffffffffffffffffff1673ffffffffffffffffffffffffffffffffffffffff1673ffffffffffffffffffffffffffffffffffffffff16815260200190815260200160002054611db990919063ffffffff16565b600660008060009054906101000a900473ffffffffffffffffffffffffffffffffffffffff1673ffffffffffffffffffffffffffffffffffffffff1673ffffffffffffffffffffffffffffffffffffffff168152602001908152602001600020819055505b827f49a200d3e2bfb0997426c30054b75c170a66207f8a1acce75890eaa7cb8d9f98338684604051808473ffffffffffffffffffffffffffffffffffffffff1673ffffffffffffffffffffffffffffffffffffffff16815260200183151515158152602001828152602001935050505060405180910390a25050505050565b60075481565b60085481565b600854341415156111ca57600080fd5b60006111d63383611be4565b90506002600082815260200190815260200160002060009054906101000a900460ff1615151561120557600080fd5b60018060008333604051602001808381526020018273ffffffffffffffffffffffffffffffffffffffff1673ffffffffffffffffffffffffffffffffffffffff166c010000000000000000000000000281526014019250505060405160208183030381529060405280519060200120815260200190815260200160002060006101000a81548160ff0219169083151502179055506112b1600a6007540242611db990919063ffffffff16565b600460008385604051602001808381526020018273ffffffffffffffffffffffffffffffffffffffff1673ffffffffffffffffffffffffffffffffffffffff166c0100000000000000000000000002815260140192505050604051602081830303815290604052805190602001208152602001908152602001600020819055503373ffffffffffffffffffffffffffffffffffffffff168273ffffffffffffffffffffffffffffffffffffffff167f78bb2daef4aa0584da5752c6b33ef9cd64ca2b17410962aabdbc1175860e7b0760405160405180910390a35050565b6000809054906101000a900473ffffffffffffffffffffffffffffffffffffffff1681565b60056020528060005260406000206000915054906101000a900460ff1681565b60008282604051602001808381526020018273ffffffffffffffffffffffffffffffffffffffff1673ffffffffffffffffffffffffffffffffffffffff166c010000000000000000000000000281526014019250505060405160208183030381529060405280519060200120905092915050565b6008543414151561145857600080fd5b600081118015611469575060085481105b151561147457600080fd5b60006114803384611be4565b9050600160008285604051602001808381526020018273ffffffffffffffffffffffffffffffffffffffff1673ffffffffffffffffffffffffffffffffffffffff166c010000000000000000000000000281526014019250505060405160208183030381529060405280519060200120815260200190815260200160002060009054906101000a900460ff16151561151757600080fd5b600160008285604051602001808381526020018273ffffffffffffffffffffffffffffffffffffffff1673ffffffffffffffffffffffffffffffffffffffff166c010000000000000000000000000281526014019250505060405160208183030381529060405280519060200120815260200190815260200160002060006101000a81549060ff021916905560016002600083815260200190815260200160002060006101000a81548160ff0219169083151502179055506115e442600754611db990919063ffffffff16565b600460008381526020019081526020016000208190555060008133604051602001808381526020018273ffffffffffffffffffffffffffffffffffffffff1673ffffffffffffffffffffffffffffffffffffffff166c010000000000000000000000000281526014019250505060405160208183030381529060405280519060200120905082600360008381526020019081526020016000208190555060016005600084815260200190815260200160002060006101000a81548160ff021916908360028111156116b157fe5b02179055503373ffffffffffffffffffffffffffffffffffffffff168473ffffffffffffffffffffffffffffffffffffffff16837f26beb95e363e2dece8ee3e1a9592aff3563f5f4c4a1f2f300451b1b53096dec8866040518082815260200191505060405180910390a450505050565b60008211801561173457506008548211155b151561173f57600080fd5b600061174b3385611be4565b905060008185604051602001808381526020018273ffffffffffffffffffffffffffffffffffffffff1673ffffffffffffffffffffffffffffffffffffffff166c010000000000000000000000000281526014019250505060405160208183030381529060405280519060200120905060008233604051602001808381526020018273ffffffffffffffffffffffffffffffffffffffff1673ffffffffffffffffffffffffffffffffffffffff166c01000000000000000000000000028152601401925050506040516020818303038152906040528051906020012090506001600281111561183657fe5b6005600085815260200190815260200160002060009054906101000a900460ff16600281111561186257fe5b14151561186e57600080fd5b6002600084815260200190815260200160002060009054906101000a900460ff16151561189a57600080fd5b60026005600085815260200190815260200160002060006101000a81548160ff021916908360028111156118ca57fe5b0217905550600060036000848152602001908152602001600020541115156118f157600080fd5b60006003600084815260200190815260200160002054905060036000848152602001908152602001600020600090558415611a695761197881600660003373ffffffffffffffffffffffffffffffffffffffff1673ffffffffffffffffffffffffffffffffffffffff16815260200190815260200160002054611db990919063ffffffff16565b600660003373ffffffffffffffffffffffffffffffffffffffff1673ffffffffffffffffffffffffffffffffffffffff16815260200190815260200160002081905550611a216119d382600854611edc90919063ffffffff16565b600660008a73ffffffffffffffffffffffffffffffffffffffff1673ffffffffffffffffffffffffffffffffffffffff16815260200190815260200160002054611db990919063ffffffff16565b600660008973ffffffffffffffffffffffffffffffffffffffff1673ffffffffffffffffffffffffffffffffffffffff16815260200190815260200160002081905550611b43565b611ade600854600660008060009054906101000a900473ffffffffffffffffffffffffffffffffffffffff1673ffffffffffffffffffffffffffffffffffffffff1673ffffffffffffffffffffffffffffffffffffffff16815260200190815260200160002054611db990919063ffffffff16565b600660008060009054906101000a900473ffffffffffffffffffffffffffffffffffffffff1673ffffffffffffffffffffffffffffffffffffffff1673ffffffffffffffffffffffffffffffffffffffff168152602001908152602001600020819055505b856003600084815260200190815260200160002081905550837f11a779f5d56c34b68c64c3da51d1978d11208eb72f354e5e46400d78807eff3f33888885604051808573ffffffffffffffffffffffffffffffffffffffff1673ffffffffffffffffffffffffffffffffffffffff1681526020018481526020018315151515815260200182815260200194505050505060405180910390a250505050505050565b60008173ffffffffffffffffffffffffffffffffffffffff168373ffffffffffffffffffffffffffffffffffffffff1610611cc3578183604051602001808373ffffffffffffffffffffffffffffffffffffffff1673ffffffffffffffffffffffffffffffffffffffff166c010000000000000000000000000281526014018273ffffffffffffffffffffffffffffffffffffffff1673ffffffffffffffffffffffffffffffffffffffff166c010000000000000000000000000281526014019250505060405160208183030381529060405280519060200120611d69565b8282604051602001808373ffffffffffffffffffffffffffffffffffffffff1673ffffffffffffffffffffffffffffffffffffffff166c010000000000000000000000000281526014018273ffffffffffffffffffffffffffffffffffffffff1673ffffffffffffffffffffffffffffffffffffffff166c0100000000000000000000000002815260140192505050604051602081830303815290604052805190602001205b905092915050565b60036020528060005260406000206000915090505481565b60066020528060005260406000206000915090505481565b60046020528060005260406000206000915090505481565b6000808284019050838110151515611dd057600080fd5b8091505092915050565b6000611e2e82600660008673ffffffffffffffffffffffffffffffffffffffff1673ffffffffffffffffffffffffffffffffffffffff16815260200190815260200160002054611db990919063ffffffff16565b600660008573ffffffffffffffffffffffffffffffffffffffff1673ffffffffffffffffffffffffffffffffffffffff168152602001908152602001600020819055506001905092915050565b6002600083815260200190815260200160002060006101000a81549060ff021916905560036000828152602001908152602001600020600090556005600083815260200190815260200160002060006101000a81549060ff02191690555050565b6000828211151515611eed57600080fd5b60008284039050809150509291505056fea165627a7a72305820f04c605cbf73dac5c703b3a526289e9c6fccfed974a6a7f2f21208ecf516a9ab0029",
  "source": "pragma solidity >=0.5.2;\n\nimport './SafeMath.sol'; \n// TODO: Create connection deadline. Deposit goes to user who made it further in the game\n// TODO: moveTimeline should be measured in blocks\n\n\ncontract Ultimatum { \n    using SafeMath for uint256; \n\n    address public owner; \n    enum GameState { Uninitialized, FirstMove, SecondMove }\n    // ------------------------------------------------------------------------\n    //  Boolean storage representing pairing requests and connections\n    // ------------------------------------------------------------------------\n    mapping (bytes32 => bool) public requested;\n    mapping (bytes32 => bool) public connected;\n    mapping (bytes32 => uint) public offer; \n    mapping (bytes32 => uint) public deadline; \n    mapping (bytes32 => GameState) public gameState; \n\n\n\n    mapping (address => uint) public owed; \n\n    uint public moveTimeline = uint(60400);   // One day\n    uint public wager = 10**17;      // .1 ether \n\n    constructor() \n    public { \n        owner = msg.sender; \n    }\n\n    function broadcastPlayer()\n    public { \n        emit LogWantingToPlay(msg.sender); \n    }\n\n\n    // ------------------------------------------------------------------------\n    //  Request a pairing with address _to\n    // Execution cost: 23965\n    // ------------------------------------------------------------------------\n    function requestMatch(address _to)\n    public \n    payable {\n        require(msg.value == wager); \n        bytes32 pairHash = getPairHash(msg.sender, _to);\n        require(!connected[pairHash]);\n        requested[keccak256(abi.encodePacked(pairHash, msg.sender))] = true;\n        deadline[keccak256(abi.encodePacked(pairHash, _to))] = now.add(moveTimeline*10); \n        emit LogGameRequest(_to, msg.sender);\n    }\n\n    // ------------------------------------------------------------------------\n    //  User can agree to start a match with _from\n    // TODO: ecRecover() signature of intent to play. Avoid having to call requestMatch()\n    // ------------------------------------------------------------------------\n    function firstOfferOffChain(address _from, uint _offer)\n    public \n    payable {\n        require(msg.value == wager); \n        require(_offer > 0 && _offer < wager); \n        bytes32 pairHash = getPairHash(msg.sender, _from);\n        require(requested[keccak256(abi.encodePacked(pairHash, _from))]);\n        delete requested[keccak256(abi.encodePacked(pairHash, _from))];\n        connected[pairHash] = true;\n        deadline[pairHash] = moveTimeline.add(now); \n        bytes32 offerHash = keccak256(abi.encodePacked(pairHash, msg.sender)); \n        offer[offerHash] = _offer; \n        gameState[pairHash] = GameState.FirstMove; \n        emit LogNewGame(pairHash, _from, msg.sender, _offer);\n    }\n\n    // ------------------------------------------------------------------------\n    //  User can agree to start a match with _from\n    // Execution cost: 50588\n    // ------------------------------------------------------------------------\n    function firstOffer(address _from, uint _offer)\n    public \n    payable {\n        require(msg.value == wager); \n        require(_offer > 0 && _offer <= wager); \n        bytes32 pairHash = getPairHash(msg.sender, _from);\n        require(requested[keccak256(abi.encodePacked(pairHash, _from))]);\n        delete requested[keccak256(abi.encodePacked(pairHash, _from))];\n        connected[pairHash] = true;\n        deadline[pairHash] = moveTimeline.add(now); \n        bytes32 offerHash = keccak256(abi.encodePacked(pairHash, msg.sender)); \n        offer[offerHash] = _offer; \n        gameState[pairHash] = GameState.FirstMove; \n        emit LogNewGame(pairHash, _from, msg.sender, _offer);\n    }\n\n    // ------------------------------------------------------------------------\n    //  User who initiated game can now accept or deny the offer and create an offer of their own\n    // Execution cost: 69873\n    // ------------------------------------------------------------------------\n    function secondOffer(address _to, uint _responseOffer, bool _accept)\n    public { \n        require(_responseOffer > 0 && _responseOffer <= wager);  \n        bytes32 pairHash = getPairHash(msg.sender, _to); \n        bytes32 opponentHash = keccak256(abi.encodePacked(pairHash, _to));\n        bytes32 playerHash = keccak256(abi.encodePacked(pairHash, msg.sender));\n        require(gameState[pairHash] == GameState.FirstMove); \n        require(connected[pairHash]); \n        gameState[pairHash] = GameState.SecondMove; \n        require(offer[opponentHash] > 0);\n        uint deal = offer[opponentHash]; \n        delete offer[opponentHash]; \n        if (_accept) { \n            owed[msg.sender] = owed[msg.sender].add(deal); \n            owed[_to] = owed[_to].add(wager.sub(deal)); \n        }\n        else owed[owner] = owed[owner].add(wager); \n        offer[playerHash] = _responseOffer; \n        emit LogOfferReturned(pairHash, msg.sender, _responseOffer, _accept, deal); \n    }\n\n    // ------------------------------------------------------------------------\n    //  User who accepted game can accept the offer or deny it\n    // Execution cost: 12594\n    // ------------------------------------------------------------------------\n    function finishGame(address _to, bool _accept)\n    public {\n        bytes32 pairHash = getPairHash(msg.sender, _to);\n        require (gameState[pairHash] == GameState.SecondMove); \n        bytes32 opponentHash = keccak256(abi.encodePacked(pairHash, _to));    // Offer for address _to\n        require(connected[pairHash]);\n        delete connected[pairHash];\n        uint deal = offer[opponentHash]; \n        delete offer[opponentHash]; \n        delete gameState[pairHash]; \n        if (_accept) { \n            owed[msg.sender] = owed[msg.sender].add(deal); \n            owed[_to] = owed[_to].add(wager.sub(deal)); \n        }\n        else { \n            owed[owner] = owed[owner].add(wager); \n        }\n        emit LogGameFinished(pairHash, msg.sender, _accept, deal); \n    }\n\n\n    function withdraw()\n    public { \n        uint payout = owed[msg.sender]; \n        require(payout > 0, \"0 OWED\"); \n        delete owed[msg.sender]; \n        msg.sender.transfer(payout); \n    }\n\n\n    // @dev Game can end at 4 places: requestMatch(), firstOffer(), secondOffer(), finishGame\n    function refundMatch(address _otherPlayer)\n    public \n    returns (bool) { \n        bytes32 pairHash = getPairHash(msg.sender, _otherPlayer); \n        bytes32 otherPlayerHash = getVariableHashFor(pairHash, _otherPlayer);\n        bytes32 thisPlayerHash = getVariableHashFor(pairHash, msg.sender); \n        // after requestMatch() \n        if (requested[otherPlayerHash]) { \n            require(!connected[pairHash]);\n            require(deadline[pairHash] < now);   // Make sure other players deadline is up\n            delete requested[otherPlayerHash]; \n            credit(msg.sender, wager);     // Return users wager \n            return true; \n        }\n        // after firstOffer or second offer \n        if (gameState[pairHash] == GameState.FirstMove || gameState[pairHash] == GameState.SecondMove){\n            require(deadline[pairHash] < now); \n            if (offer[otherPlayerHash] == 0){\n                credit(msg.sender, wager); \n                finishGame(pairHash, thisPlayerHash); \n                return true;\n            }\n            else {\n                credit(_otherPlayer, wager); \n                finishGame(pairHash, otherPlayerHash);\n                return true;\n            }\n        }\n        return false;\n    }\n\n    function finishGame(bytes32 pairHash, bytes32 playerHash)\n    internal {\n        delete connected[pairHash];\n        delete offer[playerHash];\n        delete gameState[pairHash];\n    }\n\n    function credit(address _a, uint _amount)\n    internal \n    returns (bool) { \n        owed[_a] = owed[_a].add(_amount); \n        return true; \n    }\n\n    // ------------------------------------------------------------------------\n    // @notice Finds the common shared hash of these two addresses\n    // @dev Use this to store shared game data between two addresses\n    // ------------------------------------------------------------------------\n    function getPairHash(address _a, address _b)\n    public\n    pure\n    returns (bytes32){\n        return (_a < _b) ? keccak256(abi.encodePacked(_a, _b)) :  keccak256(abi.encodePacked(_b, _a));\n    }\n\n    // ------------------------------------------------------------------------\n    // @notice returns the request hash corresponding to _pairHash and address _b \n    // @dev Variables corresponding to address _b in pairHash(_a, _b)\n    // ------------------------------------------------------------------------\n    function getVariableHashFor(bytes32 _pairHash, address _user)\n    public\n    pure\n    returns (bytes32){\n        return keccak256(abi.encodePacked(_pairHash, _user));\n    }\n\n\n\n    // ------------------------------------------------------------------------\n    //  Events\n    // ------------------------------------------------------------------------\n    event LogWantingToPlay(address indexed _sender); \n    event LogNewGame(bytes32 indexed pairHash, address indexed initiator, address indexed acceptor, uint firstOffer);\n    event LogOfferReturned(bytes32 indexed id, address player, uint returnOffer, bool accepted, uint amountAccepted); \n    event LogGameFinished(bytes32 indexed id, address player, bool accepted, uint amountAccepted); \n    event LogGameRequest(address indexed _to, address indexed _initiator); \n\n}\n\n",
  "sourcePath": "/home/dao/code/kkgames/ultimatum.box/contracts/Ultimatum.sol",
  "compiler": {
    "name": "solc",
    "version": "0.5.2+commit.1df8f40c.Emscripten.clang"
  },
  "schemaVersion": "3.0.6",
  "updatedAt": "2019-04-11T10:11:28.702Z",
  "devdoc": {
    "methods": {}
  },
  "userdoc": {
    "methods": {}
  }
}