{
  "contractName": "Ultimatum",
  "abi": [
    {
      "constant": true,
      "inputs": [],
      "name": "randomnumber",
      "outputs": [
        {
          "name": "",
          "type": "uint256"
        }
      ],
      "payable": false,
      "stateMutability": "view",
      "type": "function",
      "signature": "0x080d0de2"
    },
    {
      "constant": true,
      "inputs": [
        {
          "name": "",
          "type": "uint256"
        }
      ],
      "name": "games",
      "outputs": [
        {
          "name": "proposer",
          "type": "address"
        },
        {
          "name": "responder",
          "type": "address"
        },
        {
          "name": "offer",
          "type": "uint256"
        },
        {
          "name": "resultBlock",
          "type": "uint256"
        },
        {
          "name": "acceptDeadline",
          "type": "uint256"
        },
        {
          "name": "money",
          "type": "uint256"
        }
      ],
      "payable": false,
      "stateMutability": "view",
      "type": "function",
      "signature": "0x117a5b90"
    },
    {
      "constant": true,
      "inputs": [],
      "name": "timeToRespond",
      "outputs": [
        {
          "name": "",
          "type": "uint8"
        }
      ],
      "payable": false,
      "stateMutability": "view",
      "type": "function",
      "signature": "0x28b31004"
    },
    {
      "constant": true,
      "inputs": [],
      "name": "lotteryLength",
      "outputs": [
        {
          "name": "",
          "type": "uint8"
        }
      ],
      "payable": false,
      "stateMutability": "view",
      "type": "function",
      "signature": "0x49c01d3f"
    },
    {
      "constant": true,
      "inputs": [],
      "name": "wager",
      "outputs": [
        {
          "name": "",
          "type": "uint256"
        }
      ],
      "payable": false,
      "stateMutability": "view",
      "type": "function",
      "signature": "0x667d5d22"
    },
    {
      "constant": true,
      "inputs": [],
      "name": "blockhashresult",
      "outputs": [
        {
          "name": "",
          "type": "bytes32"
        }
      ],
      "payable": false,
      "stateMutability": "view",
      "type": "function",
      "signature": "0x69e51bd6"
    },
    {
      "constant": true,
      "inputs": [],
      "name": "owner",
      "outputs": [
        {
          "name": "",
          "type": "address"
        }
      ],
      "payable": false,
      "stateMutability": "view",
      "type": "function",
      "signature": "0x8da5cb5b"
    },
    {
      "constant": true,
      "inputs": [],
      "name": "gameNonce",
      "outputs": [
        {
          "name": "",
          "type": "uint256"
        }
      ],
      "payable": false,
      "stateMutability": "view",
      "type": "function",
      "signature": "0x93ffb100"
    },
    {
      "constant": true,
      "inputs": [
        {
          "name": "",
          "type": "uint256"
        }
      ],
      "name": "committed",
      "outputs": [
        {
          "name": "",
          "type": "address"
        }
      ],
      "payable": false,
      "stateMutability": "view",
      "type": "function",
      "signature": "0x99bd9267"
    },
    {
      "constant": true,
      "inputs": [],
      "name": "blockhashnumber",
      "outputs": [
        {
          "name": "",
          "type": "uint256"
        }
      ],
      "payable": false,
      "stateMutability": "view",
      "type": "function",
      "signature": "0xd6598f0e"
    },
    {
      "constant": true,
      "inputs": [
        {
          "name": "",
          "type": "address"
        }
      ],
      "name": "owed",
      "outputs": [
        {
          "name": "",
          "type": "uint256"
        }
      ],
      "payable": false,
      "stateMutability": "view",
      "type": "function",
      "signature": "0xdf18e047"
    },
    {
      "inputs": [],
      "payable": false,
      "stateMutability": "nonpayable",
      "type": "constructor",
      "signature": "constructor"
    },
    {
      "anonymous": false,
      "inputs": [
        {
          "indexed": true,
          "name": "nonce",
          "type": "uint256"
        },
        {
          "indexed": false,
          "name": "proposer",
          "type": "address"
        },
        {
          "indexed": false,
          "name": "responder",
          "type": "address"
        }
      ],
      "name": "LogNewGame",
      "type": "event",
      "signature": "0x14822aa994435ae4e318fb158d1e04703a35ea887cb4eb3749ddf01fcfcd83e6"
    },
    {
      "anonymous": false,
      "inputs": [
        {
          "indexed": true,
          "name": "nonce",
          "type": "uint256"
        },
        {
          "indexed": false,
          "name": "accepted",
          "type": "bool"
        }
      ],
      "name": "LogGameFinished",
      "type": "event",
      "signature": "0xa6c34d9bb8cce7364b86067e8e6a3cff792618d6199a5d5a6e810ceeb31ff754"
    },
    {
      "constant": false,
      "inputs": [],
      "name": "play",
      "outputs": [],
      "payable": true,
      "stateMutability": "payable",
      "type": "function",
      "signature": "0x93e84cd9"
    },
    {
      "constant": false,
      "inputs": [],
      "name": "startGame",
      "outputs": [],
      "payable": false,
      "stateMutability": "nonpayable",
      "type": "function",
      "signature": "0xd65ab5f2"
    },
    {
      "constant": false,
      "inputs": [
        {
          "name": "nonce",
          "type": "uint256"
        },
        {
          "name": "offer",
          "type": "uint256"
        }
      ],
      "name": "makeOffer",
      "outputs": [],
      "payable": false,
      "stateMutability": "nonpayable",
      "type": "function",
      "signature": "0x05b7cdd3"
    },
    {
      "constant": false,
      "inputs": [
        {
          "name": "nonce",
          "type": "uint256"
        },
        {
          "name": "acceptOffer",
          "type": "bool"
        }
      ],
      "name": "finishGame",
      "outputs": [],
      "payable": false,
      "stateMutability": "nonpayable",
      "type": "function",
      "signature": "0xa6b64ca5"
    },
    {
      "constant": false,
      "inputs": [],
      "name": "withdraw",
      "outputs": [],
      "payable": false,
      "stateMutability": "nonpayable",
      "type": "function",
      "signature": "0x3ccfd60b"
    },
    {
      "constant": false,
      "inputs": [
        {
          "name": "nonce",
          "type": "uint256"
        }
      ],
      "name": "refundMatch",
      "outputs": [],
      "payable": false,
      "stateMutability": "nonpayable",
      "type": "function",
      "signature": "0x105c4c49"
    },
    {
      "constant": true,
      "inputs": [
        {
          "name": "nonce",
          "type": "uint256"
        }
      ],
      "name": "getGame",
      "outputs": [
        {
          "name": "",
          "type": "address"
        },
        {
          "name": "",
          "type": "address"
        },
        {
          "name": "",
          "type": "uint256"
        },
        {
          "name": "",
          "type": "uint256"
        },
        {
          "name": "",
          "type": "uint256"
        },
        {
          "name": "",
          "type": "uint256"
        }
      ],
      "payable": false,
      "stateMutability": "view",
      "type": "function",
      "signature": "0xa2f77bcc"
    },
    {
      "constant": true,
      "inputs": [
        {
          "name": "v",
          "type": "bytes32"
        }
      ],
      "name": "bytesToUInt",
      "outputs": [
        {
          "name": "ret",
          "type": "uint256"
        }
      ],
      "payable": false,
      "stateMutability": "pure",
      "type": "function",
      "signature": "0x81a33a6f"
    }
  ],
  "bytecode": "0x608060405267016345785d8a0000600055600a600160006101000a81548160ff021916908360ff160217905550600a6001806101000a81548160ff021916908360ff16021790555060016007553480156200005957600080fd5b5033600660006101000a81548173ffffffffffffffffffffffffffffffffffffffff021916908373ffffffffffffffffffffffffffffffffffffffff160217905550620000b4620000ba640100000000026401000000009004565b62000460565b600060086000600754815260200190815260200160002090504381600301541115151562000150576040517f08c379a000000000000000000000000000000000000000000000000000000000815260040180806020018281038252601f8152602001807f4c4f5454455259204e4f542053544152544544204f522046494e49534845440081525060200191505060405180910390fd5b600260098054905010156200018257600160009054906101000a900460ff1660ff164301816003018190555062000412565b600081600301544090508060038190555060008160019004905080600481905550600060098054905082811515620001b657fe5b06905080600581905550600981815481101515620001d057fe5b9060005260206000200160009054906101000a900473ffffffffffffffffffffffffffffffffffffffff168460000160006101000a81548173ffffffffffffffffffffffffffffffffffffffff021916908373ffffffffffffffffffffffffffffffffffffffff160217905550600081146200025357600181039050806200025b565b600181019050805b506009818154811015156200026c57fe5b9060005260206000200160009054906101000a900473ffffffffffffffffffffffffffffffffffffffff168460010160006101000a81548173ffffffffffffffffffffffffffffffffffffffff021916908373ffffffffffffffffffffffffffffffffffffffff1602179055506007547f14822aa994435ae4e318fb158d1e04703a35ea887cb4eb3749ddf01fcfcd83e68560000160009054906101000a900473ffffffffffffffffffffffffffffffffffffffff168660010160009054906101000a900473ffffffffffffffffffffffffffffffffffffffff16604051808373ffffffffffffffffffffffffffffffffffffffff1673ffffffffffffffffffffffffffffffffffffffff1681526020018273ffffffffffffffffffffffffffffffffffffffff1673ffffffffffffffffffffffffffffffffffffffff1681526020019250505060405180910390a260096000620003cb919062000415565b600760008154809291906001019190505550600160009054906101000a900460ff1660ff164301600860006007548152602001908152602001600020600301819055505050505b50565b508054600082559060005260206000209081019062000435919062000438565b50565b6200045d91905b80821115620004595760008160009055506001016200043f565b5090565b90565b6119d380620004706000396000f3fe608060405260043610610131576000357c01000000000000000000000000000000000000000000000000000000009004806381a33a6f116100bd578063a2f77bcc11610081578063a2f77bcc146104d0578063a6b64ca51461059a578063d6598f0e146105e1578063d65ab5f21461060c578063df18e0471461062357610131565b806381a33a6f1461037a5780638da5cb5b146103c957806393e84cd91461042057806393ffb1001461042a57806399bd92671461045557610131565b806328b310041161010457806328b31004146102ab5780633ccfd60b146102dc57806349c01d3f146102f3578063667d5d221461032457806369e51bd61461034f57610131565b806305b7cdd314610136578063080d0de21461017b578063105c4c49146101a6578063117a5b90146101e1575b600080fd5b34801561014257600080fd5b506101796004803603604081101561015957600080fd5b810190808035906020019092919080359060200190929190505050610688565b005b34801561018757600080fd5b50610190610922565b6040518082815260200191505060405180910390f35b3480156101b257600080fd5b506101df600480360360208110156101c957600080fd5b8101908080359060200190929190505050610928565b005b3480156101ed57600080fd5b5061021a6004803603602081101561020457600080fd5b8101908080359060200190929190505050610c65565b604051808773ffffffffffffffffffffffffffffffffffffffff1673ffffffffffffffffffffffffffffffffffffffff1681526020018673ffffffffffffffffffffffffffffffffffffffff1673ffffffffffffffffffffffffffffffffffffffff168152602001858152602001848152602001838152602001828152602001965050505050505060405180910390f35b3480156102b757600080fd5b506102c0610ce1565b604051808260ff1660ff16815260200191505060405180910390f35b3480156102e857600080fd5b506102f1610cf3565b005b3480156102ff57600080fd5b50610308610e3c565b604051808260ff1660ff16815260200191505060405180910390f35b34801561033057600080fd5b50610339610e4f565b6040518082815260200191505060405180910390f35b34801561035b57600080fd5b50610364610e55565b6040518082815260200191505060405180910390f35b34801561038657600080fd5b506103b36004803603602081101561039d57600080fd5b8101908080359060200190929190505050610e5b565b6040518082815260200191505060405180910390f35b3480156103d557600080fd5b506103de610f53565b604051808273ffffffffffffffffffffffffffffffffffffffff1673ffffffffffffffffffffffffffffffffffffffff16815260200191505060405180910390f35b610428610f79565b005b34801561043657600080fd5b5061043f6110b0565b6040518082815260200191505060405180910390f35b34801561046157600080fd5b5061048e6004803603602081101561047857600080fd5b81019080803590602001909291905050506110b6565b604051808273ffffffffffffffffffffffffffffffffffffffff1673ffffffffffffffffffffffffffffffffffffffff16815260200191505060405180910390f35b3480156104dc57600080fd5b50610509600480360360208110156104f357600080fd5b81019080803590602001909291905050506110f4565b604051808773ffffffffffffffffffffffffffffffffffffffff1673ffffffffffffffffffffffffffffffffffffffff1681526020018673ffffffffffffffffffffffffffffffffffffffff1673ffffffffffffffffffffffffffffffffffffffff168152602001858152602001848152602001838152602001828152602001965050505050505060405180910390f35b3480156105a657600080fd5b506105df600480360360408110156105bd57600080fd5b8101908080359060200190929190803515159060200190929190505050611188565b005b3480156105ed57600080fd5b506105f66115f2565b6040518082815260200191505060405180910390f35b34801561061857600080fd5b506106216115f8565b005b34801561062f57600080fd5b506106726004803603602081101561064657600080fd5b81019080803573ffffffffffffffffffffffffffffffffffffffff169060200190929190505050611949565b6040518082815260200191505060405180910390f35b60006008600084815260200190815260200160002090506000816002015414151561071b576040517f08c379a00000000000000000000000000000000000000000000000000000000081526004018080602001828103825260128152602001807f4f4646455220414c5245414459204d414445000000000000000000000000000081525060200191505060405180910390fd5b60008211801561072f575080600501548211155b15156107a3576040517f08c379a00000000000000000000000000000000000000000000000000000000081526004018080602001828103825260118152602001807f57524f4e47204f464645522056414c554500000000000000000000000000000081525060200191505060405180910390fd5b8060000160009054906101000a900473ffffffffffffffffffffffffffffffffffffffff1673ffffffffffffffffffffffffffffffffffffffff163373ffffffffffffffffffffffffffffffffffffffff1614151561086a576040517f08c379a00000000000000000000000000000000000000000000000000000000081526004018080602001828103825260108152602001807f4d5553542042452050524f504f5345520000000000000000000000000000000081525060200191505060405180910390fd5b6001809054906101000a900460ff1660ff16816003015401431015156108f8576040517f08c379a00000000000000000000000000000000000000000000000000000000081526004018080602001828103825260188152602001807f4449444e54204d414b45204f4646455220494e2054494d45000000000000000081525060200191505060405180910390fd5b8181600201819055506001809054906101000a900460ff1660ff1643018160040181905550505050565b60055481565b6000600860008381526020019081526020016000209050600081600501541415151561095357600080fd5b600081600201541415610aec57436001809054906101000a900460ff1660ff168260030154011015156109ee576040517f08c379a00000000000000000000000000000000000000000000000000000000081526004018080602001828103825260198152602001807f5354494c4c204841532054494d4520544f20524553504f4e440000000000000081525060200191505060405180910390fd5b8060050154600260008360010160009054906101000a900473ffffffffffffffffffffffffffffffffffffffff1673ffffffffffffffffffffffffffffffffffffffff1673ffffffffffffffffffffffffffffffffffffffff1681526020019081526020016000206000828254019250508190555060086000838152602001908152602001600020600080820160006101000a81549073ffffffffffffffffffffffffffffffffffffffff02191690556001820160006101000a81549073ffffffffffffffffffffffffffffffffffffffff021916905560028201600090556003820160009055600482016000905560058201600090555050610c61565b438160040154101515610b67576040517f08c379a00000000000000000000000000000000000000000000000000000000081526004018080602001828103825260198152602001807f5354494c4c204841532054494d4520544f20524553504f4e440000000000000081525060200191505060405180910390fd5b8060050154600260008360000160009054906101000a900473ffffffffffffffffffffffffffffffffffffffff1673ffffffffffffffffffffffffffffffffffffffff1673ffffffffffffffffffffffffffffffffffffffff1681526020019081526020016000206000828254019250508190555060086000838152602001908152602001600020600080820160006101000a81549073ffffffffffffffffffffffffffffffffffffffff02191690556001820160006101000a81549073ffffffffffffffffffffffffffffffffffffffff0219169055600282016000905560038201600090556004820160009055600582016000905550505b5050565b60086020528060005260406000206000915090508060000160009054906101000a900473ffffffffffffffffffffffffffffffffffffffff16908060010160009054906101000a900473ffffffffffffffffffffffffffffffffffffffff16908060020154908060030154908060040154908060050154905086565b6001809054906101000a900460ff1681565b6000600260003373ffffffffffffffffffffffffffffffffffffffff1673ffffffffffffffffffffffffffffffffffffffff168152602001908152602001600020549050600081111515610daf576040517f08c379a00000000000000000000000000000000000000000000000000000000081526004018080602001828103825260068152602001807f30204f574544000000000000000000000000000000000000000000000000000081525060200191505060405180910390fd5b600260003373ffffffffffffffffffffffffffffffffffffffff1673ffffffffffffffffffffffffffffffffffffffff168152602001908152602001600020600090553373ffffffffffffffffffffffffffffffffffffffff166108fc829081150290604051600060405180830381858888f19350505050158015610e38573d6000803e3d6000fd5b5050565b600160009054906101000a900460ff1681565b60005481565b60035481565b6000806001028214151515610e6f57600080fd5b600080600090505b6020811015610f495760ff81601f0360080260020a8560019004811515610e9a57fe5b041691506000821415610eac57610f49565b6030821080610ebb5750603982115b15610f2e576040517f08c379a00000000000000000000000000000000000000000000000000000000081526004018080602001828103825260098152602001807f424144204449474954000000000000000000000000000000000000000000000081525060200191505060405180910390fd5b600a8302925060308203830192508080600101915050610e77565b5081915050919050565b600660009054906101000a900473ffffffffffffffffffffffffffffffffffffffff1681565b60005434141515610ff2576040517f08c379a00000000000000000000000000000000000000000000000000000000081526004018080602001828103825260148152602001807f6d696e696d756d20626574206e6f742073656e7400000000000000000000000081525060200191505060405180910390fd5b60006008600060075481526020019081526020016000209050438160030154111515611021576110206115f8565b5b346008600060075481526020019081526020016000206005016000828254019250508190555060093390806001815401808255809150509060018203906000526020600020016000909192909190916101000a81548173ffffffffffffffffffffffffffffffffffffffff021916908373ffffffffffffffffffffffffffffffffffffffff1602179055505050565b60075481565b6009818154811015156110c557fe5b906000526020600020016000915054906101000a900473ffffffffffffffffffffffffffffffffffffffff1681565b60008060008060008060006008600089815260200190815260200160002090508060000160009054906101000a900473ffffffffffffffffffffffffffffffffffffffff168160010160009054906101000a900473ffffffffffffffffffffffffffffffffffffffff1682600201548360030154846004015485600501549650965096509650965096505091939550919395565b6000600860008481526020019081526020016000209050600081600201541415151561121c576040517f08c379a00000000000000000000000000000000000000000000000000000000081526004018080602001828103825260128152602001807f4f46464552204e4f54204d41444520594554000000000000000000000000000081525060200191505060405180910390fd5b806004015443101515611297576040517f08c379a00000000000000000000000000000000000000000000000000000000081526004018080602001828103825260158152602001807f4449444e5420524553504f4e4420494e2054494d45000000000000000000000081525060200191505060405180910390fd5b8060010160009054906101000a900473ffffffffffffffffffffffffffffffffffffffff1673ffffffffffffffffffffffffffffffffffffffff163373ffffffffffffffffffffffffffffffffffffffff1614151561135e576040517f08c379a00000000000000000000000000000000000000000000000000000000081526004018080602001828103825260118152602001807f4d55535420424520524553504f4e44455200000000000000000000000000000081525060200191505060405180910390fd5b827fa6c34d9bb8cce7364b86067e8e6a3cff792618d6199a5d5a6e810ceeb31ff75483604051808215151515815260200191505060405180910390a281156114f5578060020154600260003373ffffffffffffffffffffffffffffffffffffffff1673ffffffffffffffffffffffffffffffffffffffff168152602001908152602001600020600082825401925050819055508060020154816005015403600260008360000160009054906101000a900473ffffffffffffffffffffffffffffffffffffffff1673ffffffffffffffffffffffffffffffffffffffff1673ffffffffffffffffffffffffffffffffffffffff1681526020019081526020016000206000828254019250508190555060086000848152602001908152602001600020600080820160006101000a81549073ffffffffffffffffffffffffffffffffffffffff02191690556001820160006101000a81549073ffffffffffffffffffffffffffffffffffffffff0219169055600282016000905560038201600090556004820160009055600582016000905550506115ed565b806005015460026000600660009054906101000a900473ffffffffffffffffffffffffffffffffffffffff1673ffffffffffffffffffffffffffffffffffffffff1673ffffffffffffffffffffffffffffffffffffffff1681526020019081526020016000206000828254019250508190555060086000848152602001908152602001600020600080820160006101000a81549073ffffffffffffffffffffffffffffffffffffffff02191690556001820160006101000a81549073ffffffffffffffffffffffffffffffffffffffff0219169055600282016000905560038201600090556004820160009055600582016000905550505b505050565b60045481565b600060086000600754815260200190815260200160002090504381600301541115151561168d576040517f08c379a000000000000000000000000000000000000000000000000000000000815260040180806020018281038252601f8152602001807f4c4f5454455259204e4f542053544152544544204f522046494e49534845440081525060200191505060405180910390fd5b600260098054905010156116bd57600160009054906101000a900460ff1660ff1643018160030181905550611946565b6000816003015440905080600381905550600081600190049050806004819055506000600980549050828115156116f057fe5b0690508060058190555060098181548110151561170957fe5b9060005260206000200160009054906101000a900473ffffffffffffffffffffffffffffffffffffffff168460000160006101000a81548173ffffffffffffffffffffffffffffffffffffffff021916908373ffffffffffffffffffffffffffffffffffffffff1602179055506000811461178a5760018103905080611792565b600181019050805b506009818154811015156117a257fe5b9060005260206000200160009054906101000a900473ffffffffffffffffffffffffffffffffffffffff168460010160006101000a81548173ffffffffffffffffffffffffffffffffffffffff021916908373ffffffffffffffffffffffffffffffffffffffff1602179055506007547f14822aa994435ae4e318fb158d1e04703a35ea887cb4eb3749ddf01fcfcd83e68560000160009054906101000a900473ffffffffffffffffffffffffffffffffffffffff168660010160009054906101000a900473ffffffffffffffffffffffffffffffffffffffff16604051808373ffffffffffffffffffffffffffffffffffffffff1673ffffffffffffffffffffffffffffffffffffffff1681526020018273ffffffffffffffffffffffffffffffffffffffff1673ffffffffffffffffffffffffffffffffffffffff1681526020019250505060405180910390a2600960006118ff9190611961565b600760008154809291906001019190505550600160009054906101000a900460ff1660ff164301600860006007548152602001908152602001600020600301819055505050505b50565b60026020528060005260406000206000915090505481565b508054600082559060005260206000209081019061197f9190611982565b50565b6119a491905b808211156119a0576000816000905550600101611988565b5090565b9056fea165627a7a72305820260391914e38d41a5098f92eb28ef380b776c82acb9c06882ef556d3996b48030029",
  "source": "pragma solidity >=0.5.2;\n\n\n// TODO: get gas refund for userPicks\n// The size must now be adjusted within the type before the conversion. For example, you can convert a bytes4 (4 bytes) to a uint64 (8 bytes) by first converting the bytes4 variable to bytes8 and then to uint64. You get the opposite padding when converting through uint3\ncontract Ultimatum {\n\n\n\n    uint public wager = 10**17;      // .1 Ether\n    uint8 public lotteryLength = 10;     // Length of lottery in blocks\n    uint8 public timeToRespond = 10;   // Time given to make move in blocks\n\n\n    mapping (address => uint) public owed;       // Amount WEI owed to user\n\n    bytes32 public blockhashresult;\n    uint public blockhashnumber;\n    uint public randomnumber;\n\n    address public owner;\n\n    struct Game { \n        address proposer;\n        address responder; \n        uint256 offer;\n        uint256 resultBlock;   // Starting block\n        uint256 acceptDeadline;   // block number to accept by\n        uint256 money; \n    }\n\n    uint256 public gameNonce = 1;\n\n    mapping (uint256 => Game) public games; \n    \n    address[] public committed; \n\n\n    constructor()\n    public {\n        owner = msg.sender;\n        startGame(); \n    }\n\n\n    // @notice When Lottery is live, users can submit picks here\n    function play()\n    public\n    payable {\n        require(msg.value == wager, \"minimum bet not sent\");\n        Game storage currentGame = games[gameNonce]; \n        // Has lottery expired?\n        if (currentGame.resultBlock <= block.number){\n            startGame(); \n        }\n        games[gameNonce].money += msg.value; \n        committed.push(msg.sender); \n        // TODO: emit event\n    }\n\n    function startGame()\n    public {\n        Game storage currentGame = games[gameNonce]; \n        require(currentGame.resultBlock <= block.number, \"LOTTERY NOT STARTED OR FINISHED\");\n        // Not enough people waiting? \n        if (committed.length < 2){\n            // Extend lottery period\n            currentGame.resultBlock = block.number + lotteryLength; \n            // TODO: emit event\n        }\n        else {\n            // Get blockhash of result block\n            bytes32 lastNumbers = blockhash(currentGame.resultBlock);\n            blockhashresult = lastNumbers; \n            uint256 number = uint256(lastNumbers); \n            blockhashnumber = number;\n            uint256 rando = number % committed.length;\n            randomnumber = rando; \n            currentGame.proposer = committed[rando];\n            rando == 0 ? rando = rando + 1 : rando = rando -1; \n            currentGame.responder = committed[rando]; \n            emit LogNewGame(gameNonce, currentGame.proposer, currentGame.responder); \n            delete committed;\n            gameNonce++;     \n            games[gameNonce].resultBlock = block.number + lotteryLength; \n        }\n    }\n\n\n    function makeOffer(uint256 nonce, uint256 offer)\n    public {\n        Game storage thisGame = games[nonce];\n        require(thisGame.offer == 0, \"OFFER ALREADY MADE\"); \n        require(offer > 0 && offer <= thisGame.money, \"WRONG OFFER VALUE\"); \n        require(msg.sender == thisGame.proposer, \"MUST BE PROPOSER\"); \n        require(block.number < (thisGame.resultBlock + timeToRespond), \"DIDNT MAKE OFFER IN TIME\"); \n        thisGame.offer = offer;\n        thisGame.acceptDeadline = block.number + timeToRespond;\n    }\n\n    function finishGame(uint256 nonce, bool acceptOffer)\n    public {\n        Game storage thisGame = games[nonce];\n        require(thisGame.offer != 0, \"OFFER NOT MADE YET\"); \n        require(block.number < thisGame.acceptDeadline, \"DIDNT RESPOND IN TIME\");\n        require(msg.sender == thisGame.responder, \"MUST BE RESPONDER\"); \n        emit LogGameFinished(nonce, acceptOffer);\n        if (acceptOffer) { \n            owed[msg.sender] += thisGame.offer; \n            owed[thisGame.proposer] += thisGame.money - thisGame.offer; \n            delete games[nonce]; \n        }\n        else { \n            owed[owner] += thisGame.money; \n            delete games[nonce]; \n        }\n    }\n\n    function withdraw()\n    public { \n        uint payout = owed[msg.sender]; \n        require(payout > 0, \"0 OWED\"); \n        delete owed[msg.sender]; \n        msg.sender.transfer(payout); \n    }\n\n\n    // @dev Game can timeout at the offer or the response\n    function refundMatch(uint256 nonce)\n    public { \n        Game storage thisGame = games[nonce];\n        require(thisGame.money != 0); \n        // Proposer didn't respond?\n        if (thisGame.offer == 0){\n            require(thisGame.resultBlock + timeToRespond < block.number, \"STILL HAS TIME TO RESPOND\");\n            owed[thisGame.responder] += thisGame.money;  \n            delete games[nonce]; \n        }\n        // Must be the responder\n        else {\n            require(thisGame.acceptDeadline < block.number, \"STILL HAS TIME TO RESPOND\"); \n            owed[thisGame.proposer] += thisGame.money; \n            delete games[nonce];\n        }\n    }\n\nfunction getGame(uint256 nonce)\n    public \n    view \n    returns (address, address, uint256, uint256, uint256, uint256){\n        Game storage g = games[nonce];\n        return (g.proposer, g.responder, g.offer, g.resultBlock, g.acceptDeadline, g.money); \n    }\n\n    event LogNewGame(uint256 indexed nonce, address proposer, address responder);\n    event LogGameFinished(uint256 indexed nonce, bool accepted); \n\n\n    /// @dev Converts a numeric string to it's unsigned integer representation.\n    /// @param v The string to be converted.\n    function bytesToUInt(bytes32 v) \n    public\n    pure \n    returns (uint ret) {\n        require(v != bytes32(0));\n        uint digit;\n\n        for (uint i = 0; i < 32; i++) {\n            digit = uint((uint(v) / (2 ** (8 * (31 - i)))) & 0xff);\n            if (digit == 0) {\n                break;\n            }\n            else if (digit < 48 || digit > 57) {\n                revert(\"BAD DIGIT\");\n            }\n            ret *= 10;\n            ret += (digit - 48);\n        }\n        return ret;\n    }\n}",
  "sourcePath": "/home/dao/code/kkgames/ult.box/contracts/Ultimatum.sol",
  "compiler": {
    "name": "solc",
    "version": "0.5.2+commit.1df8f40c.Emscripten.clang"
  },
  "schemaVersion": "3.0.8",
  "updatedAt": "2019-04-29T18:10:30.345Z",
  "devdoc": {
    "methods": {
      "bytesToUInt(bytes32)": {
        "details": "Converts a numeric string to it's unsigned integer representation.",
        "params": {
          "v": "The string to be converted."
        }
      }
    }
  },
  "userdoc": {
    "methods": {}
  }
}