{
  "contractName": "Ultimatum",
  "abi": [
    {
      "constant": true,
      "inputs": [],
      "name": "randomnumber",
      "outputs": [
        {
          "name": "",
          "type": "uint256"
        }
      ],
      "payable": false,
      "stateMutability": "view",
      "type": "function"
    },
    {
      "constant": true,
      "inputs": [
        {
          "name": "",
          "type": "uint256"
        }
      ],
      "name": "games",
      "outputs": [
        {
          "name": "proposer",
          "type": "address"
        },
        {
          "name": "responder",
          "type": "address"
        },
        {
          "name": "offer",
          "type": "uint256"
        },
        {
          "name": "resultBlock",
          "type": "uint256"
        },
        {
          "name": "acceptDeadline",
          "type": "uint256"
        },
        {
          "name": "money",
          "type": "uint256"
        }
      ],
      "payable": false,
      "stateMutability": "view",
      "type": "function"
    },
    {
      "constant": true,
      "inputs": [],
      "name": "timeToRespond",
      "outputs": [
        {
          "name": "",
          "type": "uint8"
        }
      ],
      "payable": false,
      "stateMutability": "view",
      "type": "function"
    },
    {
      "constant": true,
      "inputs": [],
      "name": "lotteryLength",
      "outputs": [
        {
          "name": "",
          "type": "uint8"
        }
      ],
      "payable": false,
      "stateMutability": "view",
      "type": "function"
    },
    {
      "constant": true,
      "inputs": [],
      "name": "wager",
      "outputs": [
        {
          "name": "",
          "type": "uint256"
        }
      ],
      "payable": false,
      "stateMutability": "view",
      "type": "function"
    },
    {
      "constant": true,
      "inputs": [],
      "name": "blockhashresult",
      "outputs": [
        {
          "name": "",
          "type": "bytes32"
        }
      ],
      "payable": false,
      "stateMutability": "view",
      "type": "function"
    },
    {
      "constant": true,
      "inputs": [],
      "name": "owner",
      "outputs": [
        {
          "name": "",
          "type": "address"
        }
      ],
      "payable": false,
      "stateMutability": "view",
      "type": "function"
    },
    {
      "constant": true,
      "inputs": [],
      "name": "gameNonce",
      "outputs": [
        {
          "name": "",
          "type": "uint256"
        }
      ],
      "payable": false,
      "stateMutability": "view",
      "type": "function"
    },
    {
      "constant": true,
      "inputs": [
        {
          "name": "",
          "type": "uint256"
        }
      ],
      "name": "committed",
      "outputs": [
        {
          "name": "",
          "type": "address"
        }
      ],
      "payable": false,
      "stateMutability": "view",
      "type": "function"
    },
    {
      "constant": true,
      "inputs": [],
      "name": "blockhashnumber",
      "outputs": [
        {
          "name": "",
          "type": "uint256"
        }
      ],
      "payable": false,
      "stateMutability": "view",
      "type": "function"
    },
    {
      "constant": true,
      "inputs": [
        {
          "name": "",
          "type": "address"
        }
      ],
      "name": "owed",
      "outputs": [
        {
          "name": "",
          "type": "uint256"
        }
      ],
      "payable": false,
      "stateMutability": "view",
      "type": "function"
    },
    {
      "inputs": [],
      "payable": false,
      "stateMutability": "nonpayable",
      "type": "constructor"
    },
    {
      "anonymous": false,
      "inputs": [
        {
          "indexed": true,
          "name": "nonce",
          "type": "uint256"
        },
        {
          "indexed": false,
          "name": "proposerFault",
          "type": "bool"
        }
      ],
      "name": "LogMatchRefund",
      "type": "event"
    },
    {
      "anonymous": false,
      "inputs": [
        {
          "indexed": true,
          "name": "nonce",
          "type": "uint256"
        },
        {
          "indexed": false,
          "name": "offer",
          "type": "uint256"
        }
      ],
      "name": "LogOfferMade",
      "type": "event"
    },
    {
      "anonymous": false,
      "inputs": [
        {
          "indexed": true,
          "name": "user",
          "type": "address"
        },
        {
          "indexed": false,
          "name": "nonce",
          "type": "uint256"
        },
        {
          "indexed": false,
          "name": "resultBlock",
          "type": "uint256"
        }
      ],
      "name": "LogJoinedLottery",
      "type": "event"
    },
    {
      "anonymous": false,
      "inputs": [
        {
          "indexed": true,
          "name": "nonce",
          "type": "uint256"
        },
        {
          "indexed": false,
          "name": "proposer",
          "type": "address"
        },
        {
          "indexed": false,
          "name": "responder",
          "type": "address"
        }
      ],
      "name": "LogNewGame",
      "type": "event"
    },
    {
      "anonymous": false,
      "inputs": [
        {
          "indexed": true,
          "name": "nonce",
          "type": "uint256"
        },
        {
          "indexed": false,
          "name": "accepted",
          "type": "bool"
        }
      ],
      "name": "LogGameFinished",
      "type": "event"
    },
    {
      "constant": false,
      "inputs": [],
      "name": "play",
      "outputs": [],
      "payable": true,
      "stateMutability": "payable",
      "type": "function"
    },
    {
      "constant": false,
      "inputs": [],
      "name": "startGame",
      "outputs": [],
      "payable": false,
      "stateMutability": "nonpayable",
      "type": "function"
    },
    {
      "constant": false,
      "inputs": [
        {
          "name": "nonce",
          "type": "uint256"
        },
        {
          "name": "offer",
          "type": "uint256"
        }
      ],
      "name": "makeOffer",
      "outputs": [],
      "payable": false,
      "stateMutability": "nonpayable",
      "type": "function"
    },
    {
      "constant": false,
      "inputs": [
        {
          "name": "nonce",
          "type": "uint256"
        },
        {
          "name": "acceptOffer",
          "type": "bool"
        }
      ],
      "name": "finishGame",
      "outputs": [],
      "payable": false,
      "stateMutability": "nonpayable",
      "type": "function"
    },
    {
      "constant": false,
      "inputs": [],
      "name": "withdraw",
      "outputs": [],
      "payable": false,
      "stateMutability": "nonpayable",
      "type": "function"
    },
    {
      "constant": false,
      "inputs": [
        {
          "name": "nonce",
          "type": "uint256"
        }
      ],
      "name": "refundMatch",
      "outputs": [],
      "payable": false,
      "stateMutability": "nonpayable",
      "type": "function"
    },
    {
      "constant": true,
      "inputs": [
        {
          "name": "nonce",
          "type": "uint256"
        }
      ],
      "name": "getGame",
      "outputs": [
        {
          "name": "",
          "type": "address"
        },
        {
          "name": "",
          "type": "address"
        },
        {
          "name": "",
          "type": "uint256"
        },
        {
          "name": "",
          "type": "uint256"
        },
        {
          "name": "",
          "type": "uint256"
        },
        {
          "name": "",
          "type": "uint256"
        }
      ],
      "payable": false,
      "stateMutability": "view",
      "type": "function"
    },
    {
      "constant": true,
      "inputs": [],
      "name": "getCommitted",
      "outputs": [
        {
          "name": "",
          "type": "address[]"
        }
      ],
      "payable": false,
      "stateMutability": "view",
      "type": "function"
    },
    {
      "constant": true,
      "inputs": [
        {
          "name": "v",
          "type": "bytes32"
        }
      ],
      "name": "bytesToUInt",
      "outputs": [
        {
          "name": "ret",
          "type": "uint256"
        }
      ],
      "payable": false,
      "stateMutability": "pure",
      "type": "function"
    }
  ],
  "bytecode": "0x6080604052662386f26fc100006000556019600160006101000a81548160ff021916908360ff16021790555060086001806101000a81548160ff021916908360ff16021790555060016007553480156200005857600080fd5b5033600660006101000a81548173ffffffffffffffffffffffffffffffffffffffff021916908373ffffffffffffffffffffffffffffffffffffffff160217905550620000b3620000b9640100000000026401000000009004565b6200045e565b600060086000600754815260200190815260200160002090504381600301541015156200014e576040517f08c379a00000000000000000000000000000000000000000000000000000000081526004018080602001828103825260148152602001807f4c4f5454455259204e4f542046494e495348454400000000000000000000000081525060200191505060405180910390fd5b600260098054905010156200018057600160009054906101000a900460ff1660ff164301816003018190555062000410565b600081600301544090508060038190555060008160019004905080600481905550600060098054905082811515620001b457fe5b06905080600581905550600981815481101515620001ce57fe5b9060005260206000200160009054906101000a900473ffffffffffffffffffffffffffffffffffffffff168460000160006101000a81548173ffffffffffffffffffffffffffffffffffffffff021916908373ffffffffffffffffffffffffffffffffffffffff1602179055506000811462000251576001810390508062000259565b600181019050805b506009818154811015156200026a57fe5b9060005260206000200160009054906101000a900473ffffffffffffffffffffffffffffffffffffffff168460010160006101000a81548173ffffffffffffffffffffffffffffffffffffffff021916908373ffffffffffffffffffffffffffffffffffffffff1602179055506007547f14822aa994435ae4e318fb158d1e04703a35ea887cb4eb3749ddf01fcfcd83e68560000160009054906101000a900473ffffffffffffffffffffffffffffffffffffffff168660010160009054906101000a900473ffffffffffffffffffffffffffffffffffffffff16604051808373ffffffffffffffffffffffffffffffffffffffff1673ffffffffffffffffffffffffffffffffffffffff1681526020018273ffffffffffffffffffffffffffffffffffffffff1673ffffffffffffffffffffffffffffffffffffffff1681526020019250505060405180910390a260096000620003c9919062000413565b600760008154809291906001019190505550600160009054906101000a900460ff1660ff164301600860006007548152602001908152602001600020600301819055505050505b50565b508054600082559060005260206000209081019062000433919062000436565b50565b6200045b91905b80821115620004575760008160009055506001016200043d565b5090565b90565b611c2a806200046e6000396000f3fe60806040526004361061013c576000357c0100000000000000000000000000000000000000000000000000000000900480638da5cb5b116100bd578063a6b64ca511610081578063a6b64ca5146105a5578063b0a398ab146105ec578063d6598f0e14610658578063d65ab5f214610683578063df18e0471461069a5761013c565b80638da5cb5b146103d457806393e84cd91461042b57806393ffb1001461043557806399bd926714610460578063a2f77bcc146104db5761013c565b80633ccfd60b116101045780633ccfd60b146102e757806349c01d3f146102fe578063667d5d221461032f57806369e51bd61461035a57806381a33a6f146103855761013c565b806305b7cdd314610141578063080d0de214610186578063105c4c49146101b1578063117a5b90146101ec57806328b31004146102b6575b600080fd5b34801561014d57600080fd5b506101846004803603604081101561016457600080fd5b8101908080359060200190929190803590602001909291905050506106ff565b005b34801561019257600080fd5b5061019b6109d1565b6040518082815260200191505060405180910390f35b3480156101bd57600080fd5b506101ea600480360360208110156101d457600080fd5b81019080803590602001909291905050506109d7565b005b3480156101f857600080fd5b506102256004803603602081101561020f57600080fd5b8101908080359060200190929190505050610dc0565b604051808773ffffffffffffffffffffffffffffffffffffffff1673ffffffffffffffffffffffffffffffffffffffff1681526020018673ffffffffffffffffffffffffffffffffffffffff1673ffffffffffffffffffffffffffffffffffffffff168152602001858152602001848152602001838152602001828152602001965050505050505060405180910390f35b3480156102c257600080fd5b506102cb610e3c565b604051808260ff1660ff16815260200191505060405180910390f35b3480156102f357600080fd5b506102fc610e4e565b005b34801561030a57600080fd5b50610313610f97565b604051808260ff1660ff16815260200191505060405180910390f35b34801561033b57600080fd5b50610344610faa565b6040518082815260200191505060405180910390f35b34801561036657600080fd5b5061036f610fb0565b6040518082815260200191505060405180910390f35b34801561039157600080fd5b506103be600480360360208110156103a857600080fd5b8101908080359060200190929190505050610fb6565b6040518082815260200191505060405180910390f35b3480156103e057600080fd5b506103e96110ae565b604051808273ffffffffffffffffffffffffffffffffffffffff1673ffffffffffffffffffffffffffffffffffffffff16815260200191505060405180910390f35b6104336110d4565b005b34801561044157600080fd5b5061044a61127a565b6040518082815260200191505060405180910390f35b34801561046c57600080fd5b506104996004803603602081101561048357600080fd5b8101908080359060200190929190505050611280565b604051808273ffffffffffffffffffffffffffffffffffffffff1673ffffffffffffffffffffffffffffffffffffffff16815260200191505060405180910390f35b3480156104e757600080fd5b50610514600480360360208110156104fe57600080fd5b81019080803590602001909291905050506112be565b604051808773ffffffffffffffffffffffffffffffffffffffff1673ffffffffffffffffffffffffffffffffffffffff1681526020018673ffffffffffffffffffffffffffffffffffffffff1673ffffffffffffffffffffffffffffffffffffffff168152602001858152602001848152602001838152602001828152602001965050505050505060405180910390f35b3480156105b157600080fd5b506105ea600480360360408110156105c857600080fd5b8101908080359060200190929190803515159060200190929190505050611352565b005b3480156105f857600080fd5b506106016117bc565b6040518080602001828103825283818151815260200191508051906020019060200280838360005b83811015610644578082015181840152602081019050610629565b505050509050019250505060405180910390f35b34801561066457600080fd5b5061066d61184a565b6040518082815260200191505060405180910390f35b34801561068f57600080fd5b50610698611850565b005b3480156106a657600080fd5b506106e9600480360360208110156106bd57600080fd5b81019080803573ffffffffffffffffffffffffffffffffffffffff169060200190929190505050611ba0565b6040518082815260200191505060405180910390f35b600060086000848152602001908152602001600020905060008160020154141515610792576040517f08c379a00000000000000000000000000000000000000000000000000000000081526004018080602001828103825260128152602001807f4f4646455220414c5245414459204d414445000000000000000000000000000081525060200191505060405180910390fd5b6000821180156107a6575080600501548211155b151561081a576040517f08c379a00000000000000000000000000000000000000000000000000000000081526004018080602001828103825260118152602001807f57524f4e47204f464645522056414c554500000000000000000000000000000081525060200191505060405180910390fd5b8060000160009054906101000a900473ffffffffffffffffffffffffffffffffffffffff1673ffffffffffffffffffffffffffffffffffffffff163373ffffffffffffffffffffffffffffffffffffffff161415156108e1576040517f08c379a00000000000000000000000000000000000000000000000000000000081526004018080602001828103825260108152602001807f4d5553542042452050524f504f5345520000000000000000000000000000000081525060200191505060405180910390fd5b6001809054906101000a900460ff1660ff168160030154014310151561096f576040517f08c379a00000000000000000000000000000000000000000000000000000000081526004018080602001828103825260188152602001807f4449444e54204d414b45204f4646455220494e2054494d45000000000000000081525060200191505060405180910390fd5b8181600201819055506001809054906101000a900460ff1660ff1643018160040181905550827f390f35818b96fdccae31b6657e038fe85e5cde60548ca6af2f39e29ecae5452b836040518082815260200191505060405180910390a2505050565b60055481565b60006008600083815260200190815260200160002090506000816005015414151515610a6b576040517f08c379a000000000000000000000000000000000000000000000000000000000815260040180806020018281038252601e8152602001807f4d415443482046494e4953484544204f5220444f45534e54204558495354000081525060200191505060405180910390fd5b817f89e2dd9755cd999c2d12b69df63f002e4303f564677fa1f59e7e48eed755c6586000836002015414604051808215151515815260200191505060405180910390a2600081600201541415610c4757436001809054906101000a900460ff1660ff16826003015401101515610b49576040517f08c379a00000000000000000000000000000000000000000000000000000000081526004018080602001828103825260198152602001807f5354494c4c204841532054494d4520544f20524553504f4e440000000000000081525060200191505060405180910390fd5b8060050154600260008360010160009054906101000a900473ffffffffffffffffffffffffffffffffffffffff1673ffffffffffffffffffffffffffffffffffffffff1673ffffffffffffffffffffffffffffffffffffffff1681526020019081526020016000206000828254019250508190555060086000838152602001908152602001600020600080820160006101000a81549073ffffffffffffffffffffffffffffffffffffffff02191690556001820160006101000a81549073ffffffffffffffffffffffffffffffffffffffff021916905560028201600090556003820160009055600482016000905560058201600090555050610dbc565b438160040154101515610cc2576040517f08c379a00000000000000000000000000000000000000000000000000000000081526004018080602001828103825260198152602001807f5354494c4c204841532054494d4520544f20524553504f4e440000000000000081525060200191505060405180910390fd5b8060050154600260008360000160009054906101000a900473ffffffffffffffffffffffffffffffffffffffff1673ffffffffffffffffffffffffffffffffffffffff1673ffffffffffffffffffffffffffffffffffffffff1681526020019081526020016000206000828254019250508190555060086000838152602001908152602001600020600080820160006101000a81549073ffffffffffffffffffffffffffffffffffffffff02191690556001820160006101000a81549073ffffffffffffffffffffffffffffffffffffffff0219169055600282016000905560038201600090556004820160009055600582016000905550505b5050565b60086020528060005260406000206000915090508060000160009054906101000a900473ffffffffffffffffffffffffffffffffffffffff16908060010160009054906101000a900473ffffffffffffffffffffffffffffffffffffffff16908060020154908060030154908060040154908060050154905086565b6001809054906101000a900460ff1681565b6000600260003373ffffffffffffffffffffffffffffffffffffffff1673ffffffffffffffffffffffffffffffffffffffff168152602001908152602001600020549050600081111515610f0a576040517f08c379a00000000000000000000000000000000000000000000000000000000081526004018080602001828103825260068152602001807f30204f574544000000000000000000000000000000000000000000000000000081525060200191505060405180910390fd5b600260003373ffffffffffffffffffffffffffffffffffffffff1673ffffffffffffffffffffffffffffffffffffffff168152602001908152602001600020600090553373ffffffffffffffffffffffffffffffffffffffff166108fc829081150290604051600060405180830381858888f19350505050158015610f93573d6000803e3d6000fd5b5050565b600160009054906101000a900460ff1681565b60005481565b60035481565b6000806001028214151515610fca57600080fd5b600080600090505b60208110156110a45760ff81601f0360080260020a8560019004811515610ff557fe5b041691506000821415611007576110a4565b60308210806110165750603982115b15611089576040517f08c379a00000000000000000000000000000000000000000000000000000000081526004018080602001828103825260098152602001807f424144204449474954000000000000000000000000000000000000000000000081525060200191505060405180910390fd5b600a8302925060308203830192508080600101915050610fd2565b5081915050919050565b600660009054906101000a900473ffffffffffffffffffffffffffffffffffffffff1681565b6000543414151561114d576040517f08c379a00000000000000000000000000000000000000000000000000000000081526004018080602001828103825260148152602001807f6d696e696d756d20626574206e6f742073656e7400000000000000000000000081525060200191505060405180910390fd5b60006008600060075481526020019081526020016000209050438160030154101561117b5761117a611850565b5b346008600060075481526020019081526020016000206005016000828254019250508190555060093390806001815401808255809150509060018203906000526020600020016000909192909190916101000a81548173ffffffffffffffffffffffffffffffffffffffff021916908373ffffffffffffffffffffffffffffffffffffffff160217905550503373ffffffffffffffffffffffffffffffffffffffff167f39207f8534b0d0b72d6b63b8d198c266357875a7f1dcfa1faa101451753c62b160075460086000600754815260200190815260200160002060030154604051808381526020018281526020019250505060405180910390a250565b60075481565b60098181548110151561128f57fe5b906000526020600020016000915054906101000a900473ffffffffffffffffffffffffffffffffffffffff1681565b60008060008060008060006008600089815260200190815260200160002090508060000160009054906101000a900473ffffffffffffffffffffffffffffffffffffffff168160010160009054906101000a900473ffffffffffffffffffffffffffffffffffffffff1682600201548360030154846004015485600501549650965096509650965096505091939550919395565b600060086000848152602001908152602001600020905060008160020154141515156113e6576040517f08c379a00000000000000000000000000000000000000000000000000000000081526004018080602001828103825260128152602001807f4f46464552204e4f54204d41444520594554000000000000000000000000000081525060200191505060405180910390fd5b806004015443101515611461576040517f08c379a00000000000000000000000000000000000000000000000000000000081526004018080602001828103825260158152602001807f4449444e5420524553504f4e4420494e2054494d45000000000000000000000081525060200191505060405180910390fd5b8060010160009054906101000a900473ffffffffffffffffffffffffffffffffffffffff1673ffffffffffffffffffffffffffffffffffffffff163373ffffffffffffffffffffffffffffffffffffffff16141515611528576040517f08c379a00000000000000000000000000000000000000000000000000000000081526004018080602001828103825260118152602001807f4d55535420424520524553504f4e44455200000000000000000000000000000081525060200191505060405180910390fd5b827fa6c34d9bb8cce7364b86067e8e6a3cff792618d6199a5d5a6e810ceeb31ff75483604051808215151515815260200191505060405180910390a281156116bf578060020154600260003373ffffffffffffffffffffffffffffffffffffffff1673ffffffffffffffffffffffffffffffffffffffff168152602001908152602001600020600082825401925050819055508060020154816005015403600260008360000160009054906101000a900473ffffffffffffffffffffffffffffffffffffffff1673ffffffffffffffffffffffffffffffffffffffff1673ffffffffffffffffffffffffffffffffffffffff1681526020019081526020016000206000828254019250508190555060086000848152602001908152602001600020600080820160006101000a81549073ffffffffffffffffffffffffffffffffffffffff02191690556001820160006101000a81549073ffffffffffffffffffffffffffffffffffffffff0219169055600282016000905560038201600090556004820160009055600582016000905550506117b7565b806005015460026000600660009054906101000a900473ffffffffffffffffffffffffffffffffffffffff1673ffffffffffffffffffffffffffffffffffffffff1673ffffffffffffffffffffffffffffffffffffffff1681526020019081526020016000206000828254019250508190555060086000848152602001908152602001600020600080820160006101000a81549073ffffffffffffffffffffffffffffffffffffffff02191690556001820160006101000a81549073ffffffffffffffffffffffffffffffffffffffff0219169055600282016000905560038201600090556004820160009055600582016000905550505b505050565b6060600980548060200260200160405190810160405280929190818152602001828054801561184057602002820191906000526020600020905b8160009054906101000a900473ffffffffffffffffffffffffffffffffffffffff1673ffffffffffffffffffffffffffffffffffffffff16815260200190600101908083116117f6575b5050505050905090565b60045481565b600060086000600754815260200190815260200160002090504381600301541015156118e4576040517f08c379a00000000000000000000000000000000000000000000000000000000081526004018080602001828103825260148152602001807f4c4f5454455259204e4f542046494e495348454400000000000000000000000081525060200191505060405180910390fd5b6002600980549050101561191457600160009054906101000a900460ff1660ff1643018160030181905550611b9d565b60008160030154409050806003819055506000816001900490508060048190555060006009805490508281151561194757fe5b0690508060058190555060098181548110151561196057fe5b9060005260206000200160009054906101000a900473ffffffffffffffffffffffffffffffffffffffff168460000160006101000a81548173ffffffffffffffffffffffffffffffffffffffff021916908373ffffffffffffffffffffffffffffffffffffffff160217905550600081146119e157600181039050806119e9565b600181019050805b506009818154811015156119f957fe5b9060005260206000200160009054906101000a900473ffffffffffffffffffffffffffffffffffffffff168460010160006101000a81548173ffffffffffffffffffffffffffffffffffffffff021916908373ffffffffffffffffffffffffffffffffffffffff1602179055506007547f14822aa994435ae4e318fb158d1e04703a35ea887cb4eb3749ddf01fcfcd83e68560000160009054906101000a900473ffffffffffffffffffffffffffffffffffffffff168660010160009054906101000a900473ffffffffffffffffffffffffffffffffffffffff16604051808373ffffffffffffffffffffffffffffffffffffffff1673ffffffffffffffffffffffffffffffffffffffff1681526020018273ffffffffffffffffffffffffffffffffffffffff1673ffffffffffffffffffffffffffffffffffffffff1681526020019250505060405180910390a260096000611b569190611bb8565b600760008154809291906001019190505550600160009054906101000a900460ff1660ff164301600860006007548152602001908152602001600020600301819055505050505b50565b60026020528060005260406000206000915090505481565b5080546000825590600052602060002090810190611bd69190611bd9565b50565b611bfb91905b80821115611bf7576000816000905550600101611bdf565b5090565b9056fea165627a7a72305820e5bb9c255502e6d45a0b2f583ca9f5b339fc60ae1a05da7095ef73915956342c0029",
  "source": "pragma solidity >=0.5.2;\n\n\n\ncontract Ultimatum {\n\n\n\n    uint public wager = 10**16;      // .1 Ether\n    uint8 public lotteryLength = 25;     // Length of lottery in blocks\n    uint8 public timeToRespond = 8;   // Time given to make move in blocks\n\n\n    mapping (address => uint) public owed;       // Amount WEI owed to user\n\n    bytes32 public blockhashresult;     // TODO: testing\n    uint public blockhashnumber;    // TODO: testing\n    uint public randomnumber;   // TODO: testing\n\n    address public owner;\n\n    struct Game {\n        address proposer;\n        address responder;\n        uint256 offer;\n        uint256 resultBlock;   // Starting block\n        uint256 acceptDeadline;   // block number to accept by\n        uint256 money;\n    }\n\n    uint256 public gameNonce = 1;\n\n    mapping (uint256 => Game) public games;\n    \n    address[] public committed;\n\n\n    constructor()\n    public {\n        owner = msg.sender;\n        startGame();\n    }\n\n\n    // @notice When Lottery is live, users can submit picks here\n    function play()\n    public\n    payable {\n        require(msg.value == wager, \"minimum bet not sent\");\n        Game storage currentGame = games[gameNonce];\n        // Has lottery expired?\n        if (currentGame.resultBlock < block.number){\n            startGame();\n        }\n        games[gameNonce].money += msg.value;\n        committed.push(msg.sender);\n        emit LogJoinedLottery(msg.sender, gameNonce, games[gameNonce].resultBlock);\n    }\n\n    function startGame()\n    public {\n        Game storage currentGame = games[gameNonce];\n        require(currentGame.resultBlock < block.number, \"LOTTERY NOT FINISHED\");\n        // Not enough people waiting?\n        if (committed.length < 2){\n            // Extend lottery period\n            currentGame.resultBlock = block.number + lotteryLength;\n        }\n        else {\n            // Get blockhash of result block\n            bytes32 lastNumbers = blockhash(currentGame.resultBlock);\n            blockhashresult = lastNumbers;\n            uint256 number = uint256(lastNumbers);\n            blockhashnumber = number;\n            uint256 rando = number % committed.length;\n            randomnumber = rando;\n            currentGame.proposer = committed[rando];\n            rando == 0 ? rando = rando + 1 : rando = rando - 1;\n            currentGame.responder = committed[rando];\n            emit LogNewGame(gameNonce, currentGame.proposer, currentGame.responder);\n            delete committed;      // remove participants from lottery\n            gameNonce++;    // increase game nonce\n            games[gameNonce].resultBlock = block.number + lotteryLength;    // start new lottery for next game\n        }\n    }\n\n\n    function makeOffer(uint256 nonce, uint256 offer)\n    public {\n        Game storage thisGame = games[nonce];\n        require(thisGame.offer == 0, \"OFFER ALREADY MADE\");\n        require(offer > 0 && offer <= thisGame.money, \"WRONG OFFER VALUE\");\n        require(msg.sender == thisGame.proposer, \"MUST BE PROPOSER\");\n        require(block.number < (thisGame.resultBlock + timeToRespond), \"DIDNT MAKE OFFER IN TIME\");\n        thisGame.offer = offer;\n        thisGame.acceptDeadline = block.number + timeToRespond;\n        emit LogOfferMade(nonce, offer);\n    }\n\n    function finishGame(uint256 nonce, bool acceptOffer)\n    public {\n        Game storage thisGame = games[nonce];\n        require(thisGame.offer != 0, \"OFFER NOT MADE YET\");\n        require(block.number < thisGame.acceptDeadline, \"DIDNT RESPOND IN TIME\");\n        require(msg.sender == thisGame.responder, \"MUST BE RESPONDER\");\n        emit LogGameFinished(nonce, acceptOffer);\n        if (acceptOffer) {\n            owed[msg.sender] += thisGame.offer;\n            owed[thisGame.proposer] += thisGame.money - thisGame.offer;\n            delete games[nonce];\n        }\n        else {\n            owed[owner] += thisGame.money;\n            delete games[nonce];\n        }\n    }\n\n    function withdraw()\n    public {\n        uint payout = owed[msg.sender];\n        require(payout > 0, \"0 OWED\");\n        delete owed[msg.sender];\n        msg.sender.transfer(payout);\n    }\n\n\n    // @dev Game can timeout at the offer or the response\n    function refundMatch(uint256 nonce)\n    public {\n        Game storage thisGame = games[nonce];\n        require(thisGame.money != 0, \"MATCH FINISHED OR DOESNT EXIST\");\n        emit LogMatchRefund(nonce, (thisGame.offer == 0));\n        // Proposer didn't respond?\n        if (thisGame.offer == 0){\n            require(thisGame.resultBlock + timeToRespond < block.number, \"STILL HAS TIME TO RESPOND\");\n            owed[thisGame.responder] += thisGame.money;\n            delete games[nonce];\n        }\n        // Must be the responder\n        else {\n            require(thisGame.acceptDeadline < block.number, \"STILL HAS TIME TO RESPOND\");\n            owed[thisGame.proposer] += thisGame.money;\n            delete games[nonce];\n        }\n    }\n\n    function getGame(uint256 nonce)\n    public\n    view\n    returns (address, address, uint256, uint256, uint256, uint256){\n        Game storage g = games[nonce];\n        return (g.proposer, g.responder, g.offer, g.resultBlock, g.acceptDeadline, g.money);\n    }\n\n    function getCommitted()\n    public\n    view\n    returns (address[] memory){\n        return committed;\n    }\n\n    event LogMatchRefund(uint256 indexed nonce, bool proposerFault);\n    event LogOfferMade(uint256 indexed nonce, uint256 offer);\n    event LogJoinedLottery(address indexed user, uint256 nonce, uint256 resultBlock);\n    event LogNewGame(uint256 indexed nonce, address proposer, address responder);\n    event LogGameFinished(uint256 indexed nonce, bool accepted);\n\n\n    /// @dev Converts a numeric string to it's unsigned integer representation.\n    /// @param v The string to be converted.\n    function bytesToUInt(bytes32 v)\n    public\n    pure\n    returns (uint ret) {\n        require(v != bytes32(0));\n        uint digit;\n\n        for (uint i = 0; i < 32; i++) {\n            digit = uint((uint(v) / (2 ** (8 * (31 - i)))) & 0xff);\n            if (digit == 0) {\n                break;\n            }\n            else if (digit < 48 || digit > 57) {\n                revert(\"BAD DIGIT\");\n            }\n            ret *= 10;\n            ret += (digit - 48);\n        }\n        return ret;\n    }\n}",
  "sourcePath": "/home/dao/code/kkgames/ultimatum/contracts/Ultimatum.sol",
  "compiler": {
    "name": "solc",
    "version": "0.5.2+commit.1df8f40c.Emscripten.clang"
  },
  "schemaVersion": "3.0.9",
  "updatedAt": "2019-05-14T12:02:57.980Z",
  "devdoc": {
    "methods": {
      "bytesToUInt(bytes32)": {
        "details": "Converts a numeric string to it's unsigned integer representation.",
        "params": {
          "v": "The string to be converted."
        }
      }
    }
  },
  "userdoc": {
    "methods": {}
  }
}